S0150000547261666669632D4C696768742E737265632B
S11300000C942A000C9447000C9447000C9447006D
S11300100C9447000C9447000C9447000C94470040
S11300200C9447000C9447000C943A040C94470039
S11300300C9447000C9447000C9447000C94470020
S11300400C9447000C9447000C9447000C94470010
S11300500C94470011241FBECFE5D8E0DEBFCDBF0E
S113006010E0A0E6B0E0E8E1F9E002C005900D92EE
S1130070AC36B107D9F710E0ACE6B0E001C01D9290
S1130080AF36B107E1F70E9442030C948A040C9442
S1130090000040E00E94620008950E9468010895F3
S11300A041E00E946200089541E00E94E500089545
S11300B040E00E94E50008950E949E0108950E9478
S11300C068010895823451F1833420F4813409F0B5
S11300D07BC007C0833409F43EC0843409F074C083
S11300E057C0413069F42AB381E090E0AC0102C00A
S11300F0440F551F6A95E2F7BA01622B6ABB089553
S11301002AB381E090E0AC0102C0440F551F6A9508
S1130110E2F7BA01609562236ABB0895413069F43D
S113012027B381E090E0AC0102C0440F551F6A95EB
S1130130E2F7BA01622B67BB089527B381E090E030
S1130140AC0102C0440F551F6A95E2F7BA016095ED
S1130150622367BB0895413069F424B381E090E0E1
S1130160AC0102C0440F551F6A95E2F7BA01622B35
S113017064BB089524B381E090E0AC0102C0440F55
S1130180551F6A95E2F7BA016095622364BB08952E
S1130190413069F421B381E090E0AC0102C0440F26
S11301A0551F6A95E2F7BA01622B61BB089521B32A
S11301B081E090E0AC0102C0440F551F6A95E2F75C
S11301C0BA016095622361BB0895823451F183348E
S11301D020F4813409F07BC007C0833409F43EC0A5
S11301E0843409F074C057C0413069F42BB381E002
S11301F090E0AC0102C0440F551F6A95E2F7BA01C2
S1130200622B6BBB08952BB381E090E0AC0102C07C
S1130210440F551F6A95E2F7BA01609562236BBBE0
S11302200895413069F428B381E090E0AC0102C044
S1130230440F551F6A95E2F7BA01622B68BB089513
S113024028B381E090E0AC0102C0440F551F6A95C9
S1130250E2F7BA016095622368BB0895413069F4FE
S113026025B381E090E0AC0102C0440F551F6A95AC
S1130270E2F7BA01622B65BB089525B381E090E0F3
S1130280AC0102C0440F551F6A95E2F7BA016095AC
S1130290622365BB0895413069F422B381E090E0A4
S11302A0AC0102C0440F551F6A95E2F7BA01622BF4
S11302B062BB089522B381E090E0AC0102C0440F18
S11302C0551F6A95E2F7BA016095622362BB0895EF
S11302D08234A1F0833418F4813471F505C0833479
S11302E0B9F0843449F51EC029B330E0C90102C015
S11302F0959587956A95E2F78170089526B330E065
S1130300C90102C0959587956A95E2F781700895B1
S113031023B330E0C90102C0959587956A95E2F749
S11303208170089520B330E0C90102C09595879586
S11303306A95E2F78170089580E008958234B9F0F7
S1130340833418F48134C9F505C08334E9F0843466
S1130350A1F527C02BB381E090E0AC0102C0440FAB
S1130360551F6A95E2F7BA0162276BBB089528B35B
S113037081E090E0AC0102C0440F551F6A95E2F79A
S1130380BA01622768BB089525B381E090E0AC010F
S113039002C0440F551F6A95E2F7BA01622765BB94
S11303A0089522B381E090E0AC0102C0440F551FD0
S11303B06A95E2F7BA01622762BB0895823461F05C
S11303C0833418F4813469F405C0833439F08434F7
S11303D041F406C06ABB089567BB089564BB0895E1
S11303E061BB0895823461F0833418F4813469F474
S11303F005C0833439F0843441F406C06BBB0895DE
S113040068BB089565BB089562BB0895823461F0AA
S1130410833418F4813471F405C0833439F084349E
S113042049F406C089B3089586B3089583B3089543
S113043080B3089580E008950F931F93CF93DF93C3
S1130440082FD62FC42F142F1C5F4D2F4170802FDF
S11304506C2F0E94E500D695CF5FC117B1F7DF91ED
S1130460CF911F910F910895823451F1833420F478
S1130470813409F07BC007C0833409F43EC084345E
S113048009F074C057C0413069F42BB381E090E0A7
S1130490AC0102C0440F551F6A95E2F7BA01622B02
S11304A06BBB08952BB381E090E0AC0102C0440F14
S11304B0551F6A95E2F7BA01609562236BBB0895F4
S11304C0413069F428B381E090E0AC0102C0440FEC
S11304D0551F6A95E2F7BA01622B68BB089528B3E9
S11304E081E090E0AC0102C0440F551F6A95E2F729
S11304F0BA016095622368BB0895413069F425B35D
S113050081E090E0AC0102C0440F551F6A95E2F708
S1130510BA01622B65BB089525B381E090E0AC017C
S113052002C0440F551F6A95E2F7BA016095622331
S113053065BB0895413069F422B381E090E0AC01D9
S113054002C0440F551F6A95E2F7BA01622B62BBE1
S1130550089522B381E090E0AC0102C0440F551F1E
S11305606A95E2F7BA016095622362BB089541E09F
S11305700E946200089541E00E94E500089540E071
S11305800E94E50008950E949E0108950E9468015A
S113059008956FEF0E94DE010895CF93DF93CDB7E6
S11305A0DEB72A970FB6F894DEBF0FBECDBFDE01CB
S11305B01196E0E6F0E09AE001900D929150E1F797
S11305C0442339F4FE01E60FF11D61810E94F2011A
S11305D007C0FE01E60FF11D618160950E94F201E2
S11305E02A960FB6F894DEBF0FBECDBFDF91CF9130
S11305F0089583B7886083BF80E58CBF83B781602B
S113060083BF83B7846083BF789489B7826089BFCE
S11306100895BB9A83B7886083BF80E48CBF83B797
S1130620816083BF83B7846083BF83B7806183BFE6
S11306300895BB9A83B7806483BF83B7886083BF00
S113064080E48CBF83B7816083BF83B7846083BF3A
S113065083B7806183BF83B7806283BF0895BB9AE9
S113066083B7806483BF80E48CBF83B7816083BF1A
S113067083B7846083BF83B7806183BF83B780629D
S113068083BF08950E94F90282E465E00E94490054
S113069084E465E00E94B70284E466E00E94B70245
S11306A084E467E00E94B70283E460E00E945000A3
S11306B082E490E060E070E041E050E00E9462007B
S11306C082E490E061E070E041E050E00E9462006A
S11306D00F2EFEE1EF2EFF24F02DDAE0C1E0809131
S11306E06A0090E00197B7010E946304182F1F5F0E
S11306F080916D008823D1F482E490E060E070E0A2
S113070040E050E00E94E50082E490E061E070E0A7
S113071041E050E00E94E500812F6D2F0E945704B4
S113072081E4692F40E00E94CD0219C082E490E088
S113073060E070E041E050E00E94E50082E490E077
S113074061E070E040E050E00E94E500812F6D2FF1
S11307500E945704682F81E440E00E94CD0282E4A5
S113076065E00E944D00882369F480916C009C2F01
S1130770981B90936C0082E465E00E944D008823EE
S1130780D1F304C080916C0080936C0080916C0064
S1130790813029F483E460E00E945400A0CF83E414
S11307A060E00E94580080916E00843668F0809169
S11307B06A008F5F80936A0010926E0080916A00D5
S11307C08D3310F0C0936A0080916A00882389F009
S11307D080916A008A3168F484E465E00E94BB0277
S11307E084E466E00E94BF0284E467E00E94BF02E2
S11307F076CF80916A008A3188F080916A008F31C7
S113080068F484E465E00E94BB0284E466E00E942C
S1130810BB0284E467E00E94BF0261CF80916A005A
S11308208F3188F080916A00883368F484E467E04B
S11308300E94BB0284E465E00E94BF0284E466E097
S11308400E94BF024CCF80916A00883308F447CFDE
S113085080916A008D3308F042CF84E467E00E94FF
S1130860BB0284E466E00E94BB0284E465E00E946B
S1130870BF0235CF1F920F920FB60F9211248F93A0
S11308809F9380916C00882329F480916E008F5F80
S113089080936E0090916D0081E0891B80936D00C0
S11308A09F918F910F900FBE0F901F901895991BD9
S11308B079E004C0991F961708F0961B881F7A9553
S11308C0C9F78095089597FB092E07260AD077FD6E
S11308D004D00CD006D000201AF4709561957F4F97
S11308E00895F6F7909581959F4F0895AA1BBB1B19
S11308F051E107C0AA1FBB1FA617B70710F0A61B1C
S1130900B70B881F991F5A95A9F780959095BC013C
S10B0910CD010895F894FFCF16
S10F09183F065B4F666D7D477F6F01005A
S9030000FC
